:10000000E01F0010B9230000F1230000F5230000D9
:1000100000000000000000000000000000000000E0
:10002000000000000000000000000000F9230000B4
:100030000000000000000000FD230000012400007B
:1000400005240000092400000D24000011240000F4
:1000500015240000192400001D24000021240000A4
:1000600025240000292400002D2400003124000054
:1000700035240000392400003D2400004124000004
:1000800081030000492400004D2400005124000099
:1000900055240000592400005D2400006124000064
:1000A00065240000692400006D2400007124000014
:1000B00075240000792400007D24000081240000C4
:0402FC00FFFFFFFF02
:10030000402292029A1A92467047C046174B002B21
:1003100000D1134B9D46FFF7F3FF00218B460F469C
:100320001348144A121A03F0B7F90E4B002B00D0F1
:1003300098470D4B002B00D0984700200021040067
:100340000D000D48002802D00C4800E000BF03F06B
:100350007BFA2000290002F01FFA02F08DFEC04651
:10036000000008000000000000000000E01F001076
:1003700064000010440200100000000000000000B3
:1003800070B580260F4D7605AB6E334219D00E4CFA
:1003900001212268280000F0BFFDAE6623681868BE
:1003A00002F046FE094A0A4B02F03EFB02F004FE50
:1003B0002368020099686060064801F03DFD012352
:1003C000237270BD00C0014064000010E1287975FF
:1003D0008E01993FD43B000080230E4A5B04D06F0E
:1003E00010B50343D3678E2210200B4992008B581F
:1003F00083438B500D3800F039FB0100074800F0B3
:10040000FFFC002803D0064801F016FD10BD05488A
:10041000FAE7C046048004400080044000C0014068
:10042000EB3B0000033C0000012330B587B06A4677
:1004300001930023134C01A905002000138100F053
:10044000B3FC02230393013304930F4B200003A951
:10045000059300F001FD8023A2681B061343A360EF
:100460008023A268DB041343A3602A00012105480E
:1004700000F052FD0028F8D02900024800F026FDC7
:1004800007B030BD00C0014001000001802370B5FD
:100490001C4A5B00D16F86B00B43D36703A800F002
:1004A000D5FD00266B466A469E81DE73F923164C05
:1004B00003A920005374012500F064FD802102ABE4
:1004C0000193009533002000104A490100F00FFE0F
:1004D0002000029A032100F06FFF029BC1219D4082
:1004E0002289DB002A4392B222811B1989005A58C3
:1004F000074802405A500422A3889343A38006B0C1
:1005000070BDC046048004400040005088130000C5
:10051000FFFF9FFF70B500F037FA80230125094ADD
:10052000DB01D16F04000B43D367074B03201D6031
:1005300000F006FCE1212A0023004902002001F01E
:100540004AFB70BD04800440948004408E2373B540
:100550000125022100260F4C9B00E2586846AA4361
:10056000E250E2588A43E2500B4B1E606B461E710C
:100570000A4B009300F0A8FAC020800000F090FB26
:10058000FF22074B1E60A36F93431D43A56700F036
:1005900033F873BD0080044040800440008793031B
:1005A000E0800440F8B58023802610270F4CDB0242
:1005B000E26F0F4D1343E367E36F00223343E367BA
:1005C00001216F640B4800F0C7FB2F61042200215A
:1005D000084800F0C1FB0023F1012B64012205480B
:1005E00000F0C9FBE36FB343E367F8BD0480044048
:1005F0000040044000C0004010B51F4C0020636A5A
:10060000DB051B0F013B0E2B02D81C4A9B009858A0
:100610000322616A236F1340022B13D0934218D038
:10062000012B26D1206C1040033843425841144B13
:1006300040421840134BC018A16F01F083FF124CC9
:10064000206010BD1F2319400131490001F07AFFDD
:10065000F2E7A268206C1F2118400338434258413A
:10066000074B40421840074B0A40C0180132504324
:10067000E2E70448E0E7C046008004404C3B00004D
:1006800000E548FF001BB70000000010704710B5E0
:10069000044B054A9360054B054A1A60FFF7F6FFC5
:1006A00010BDC0460000000000ED00E0000000109A
:1006B000001BB700431E70B55B184D420C002B4069
:1006C000984201D9002070BD05225242521A9A4226
:1006D000F8D3081DC01802F0E3FC0028F2D0033460
:1006E00023181D40034A2B1F281A58801A802800FF
:1006F000E9E7C04639300000031F054A198810B5E4
:10070000914203D15B88C01A02F0D4FC10BDC046F0
:10071000393000000A0010B500280BD00023190062
:1007200002F088F80023044A01F098FF001C013809
:100730000028FCD110BDC04600093D004023044AFA
:1007400010B5D16F0A200B43D36700F0F9FA10BD42
:100750000480044070B54024104DEE6F3443EC67C4
:1007600001249440220080241E788D00A401002ED4
:1007700004D145192B5993432B5170BD5B78002B45
:1007800009D18A231B01C91889000A50401903594D
:1007900013430351F1E78823F4E7C0460480044083
:1007A000EFF3108172B60720064A13688343136083
:1007B000054A033813698343136130BF81F31088FE
:1007C0007047C0460000024000ED00E010B5EFF3B6
:1007D000108172B607230C4C22689A43063B1343E0
:1007E0008C222360094C9200A35883430420A35019
:1007F000074B1A6902431A6130BF1A6982431A61B2
:1008000081F3108810BDC046000002400080044003
:1008100000ED00E010B5EFF3108172B607230C4C29
:1008200022689A43053B13438C222360094C9200B3
:10083000A35883430420A350074B1A6902431A614B
:1008400030BF1A6982431A6181F3108810BDC04617
:10085000000002400080044000ED00E0EFF3108152
:1008600072B60F23084802689A430C3B1343036097
:100870000420064B1A6902431A6130BF1A69824389
:100880001A6181F3108870470000024000ED00E01B
:1008900030B50E4A172811D9050001238121183DD2
:1008A000AB408900545823435350002805DB1F23D5
:1008B00018401E3B8340064A136030BD012385214A
:1008C00083408900545823435350F0E7008004408C
:1008D00000E100E010B5002809DB1F2201230240DF
:1008E00093400B4AD367BFF34F8FBFF36F8F094B12
:1008F000172808D98124A4001A59183801218140E9
:100900008A431A5110BD8524A4001A59F6E7C0463F
:1009100004E100E00080044003688B430360036847
:100920000B43036003681942FCD0704700487047CE
:10093000001BB7008E23044A9B00D35800209B065F
:1009400001D4024B1868704700800440700000100A
:100950000A4B10B5186C03231840012807D09842A1
:1009600008D043425841064B4042184010BDFFF7A3
:10097000E1FFFBE7034B1868F8E7C046008004403E
:10098000001BB7007000001010B50D4C0020236F45
:10099000032B06D8180001F0CBFD10020508FFF765
:1009A000D7FF10BD074B5868FBE7FFF7D1FF1F22A9
:1009B000A368134001335843F3E70348F1E7C04607
:1009C0000080044070000010001BB7000F4B10B5F2
:1009D0001C680F4B00201B68E4B2032B06D81800DC
:1009E00001F0A6FD12020C0FFFF7A4FF002C03D0AC
:1009F000210001F0A7FD0400200010BD054B586840
:100A0000F4E7FFF7C1FFF1E70348EFE7E8800440B0
:100A1000E080044070000010001BB70010B5FFF725
:100A2000B3FF0A4BFF241A681300234022420BD065
:100A3000074A010E1268000222400132FF325A4377
:100A4000002301F00BFE0300180010BD9480044049
:100A5000F480044010B5FFF7E1FF10BD10B5FFF7BB
:100A6000DDFF10BD10B5FFF7D9FF10BD10B5072889
:100A700021D801F05DFD060E2004111720140F4847
:100A800010BDFFF781FF0E4B996FC9B201F05AFDFF
:100A9000F6E7FFF779FFF3E70A4B1868F0E7094B31
:100AA0005868EDE7FFF754FF1F22054B9B68134082
:100AB00001335843E4E70020E2E7C046001BB700DB
:100AC00000800440700000108E22802370B51F4CFF
:100AD0009200A15806000B430321A350236C226C03
:100AE0008B43134302791A4813432364FFF714FF1F
:100AF000FFF72EFF366801000500300001F022FDEF
:100B0000144A0023964208D8134A0133964204D867
:100B10000023124AB2425B4102331F26A168421EE3
:100B200032406036B1430A435B0113438E22802179
:100B3000A3609200A3588B43A3500123E2681A429A
:100B4000FCD06843064B986070BDC04600800440EE
:100B500044800440802FA604C0175302E08B290173
:100B6000700000101821074A10B5D36A064C8B4359
:100B7000D362E022054952008B5823408B50044B2E
:100B8000186010BD00400440FFFDFFFF00C00040A2
:100B9000700000101821104A10B5936B04008B43AD
:100BA0009363E02240200D4952008B5883438B50C1
:100BB0000B4BC03A196AFF3A0A438E211A62890028
:100BC0005A5820388243DA305A5040000549FFF71E
:100BD000A1FD054B1C6010BD0040044000C000405A
:100BE0000080044080C3C901700000101821154B1B
:100BF00010B55A6B04008A435A639A6BC0208A432B
:100C00009A63E022104952008B5883438B500F495E
:100C1000BD380B6A0A6A834313430D4A1D30A24252
:100C200092415242520013438E220B6292008B5823
:100C30008343DA308B5040000649FFF76BFD064BCB
:100C40001C6010BD0040044000C000400080044013
:100C5000C0E1E40080C3C9017000001070B5F02548
:100C60000D4CC20C636A6D005B0A2A405B021A439A
:100C7000C23D4B08FF3D013B2B4013438E22636274
:100C80009200A3582135AB430002A350000A01F0A3
:100C900059FC024B586070BD008004407000001089
:100CA00010B503240949020A0B6F23409A420BD066
:100CB000C0B2002808D10B6F2240A34313430B6737
:100CC00003480121FFF728FE10BDC0460080044004
:100CD00074800440F8B50400FFF756FE114B06007F
:100CE0001B685C43211E1BD00021A04218D32100A9
:100CF00001F028FC0021012812D80B0022000D0071
:100D00003400FF27A41A9D41074829020760200EDE
:100D10000143200201F0A2FC0121044B384018607D
:100D20000800F8BD94800440F0800440F480044042
:100D300010B501210148FFF7EFFD10BDE48004402C
:100D400001228240034B59689143596059680A4314
:100D50005A60704700800440032310B5FF240B4005
:100D6000DB009C409A408908890040180168A14333
:100D70000A43026010BD002A07D0002904DBE022EC
:100D8000520083588B43835070470029FCDBE023DB
:100D90005B00C2581143C150F6E7890093B2401876
:100DA000120D80180360704780230C4A10B5D46F71
:100DB0005B042343D367002343660A790B689202DE
:100DC000DBB2134320220360C36E9343C3664B79A7
:100DD000C46E5B0113402343C36610BD048004400E
:100DE00010B50822002102F057FC10BD024A034949
:100DF000D36F0B40D367704704800440FFFFFFFEB2
:100E0000F8B50400FF27256823680800BB4323606A
:100E10000E4901F097FB26680138384030438026A0
:100E20002060962023680A4AF60513402360236851
:100E30004000334323600749FFF76CFC2368002020
:100E40002560334200D10120F8BDC04620A1070033
:100E5000FFFBFFFF80C3C901E0224B68D2011B03E7
:100E600013400A681205120D13430A7A012A02D1AF
:100E70008022D20213434A7AD2041343CA7A012A47
:100E800002D18022D20513438A7A1207134383606A
:100E90007047E0224B68D2011B0313400A68120519
:100EA000120D13430A7A012A02D18022D20213437F
:100EB0004A7AD2041343CA7A012A02D18022D20587
:100EC00013438A7A12071343C360704703220069F1
:100ED00003041B0D0B60030C13400B71830C1340B8
:100EE0004B7183001B0F8B604300DB0FC00F0B7334
:100EF00070470322406903041B0D0B60030C134071
:100F00000B71830C13404B7183001B0F8B604300EC
:100F1000DB0FC00F0B73704708318900085803219D
:100F200003041B0D1360030C0B401371830C0B4067
:100F3000537183001B0F93604300DB0FC00F1373CB
:100F40007047C046F7B5002501270B4E0B4B3468A0
:100F50001B68234001933C4205D0094BAA00D3589B
:100F6000002B00D09847640802D00135082DF2D13B
:100F7000019B3360F7BDC046F4400050F040005084
:100F80007C0000108023264A70B50D00D16F5B00F5
:100F90000B430400D3670820FFF7D2FE7821062018
:100FA000AB782A78DB000B40697849000140F020DB
:100FB0000B43297A40014902014013430B4323604C
:100FC000EB7869791B0149010B4304210B436360F2
:100FD000082361680B436360002A0FD12B79AA793B
:100FE0001B055205134380226168D2020B43134351
:100FF0006360802362681B0313436360EB79002501
:101000002365084C29002022200025626562A56224
:10101000E56202F041FB044B2800236370BDC0462B
:10102000048004407C000010450F00004268044B1F
:1010300004491343044A4360D36F0B40D36770479E
:1010400004000400FFFEFFFF0480044010B50822E6
:1010500004000021013002F01FFB012323700E3336
:10106000237210BDF7B51E000B00A033DB00C318C0
:101070005B6804000193F300C318C1200F25C32748
:1010800080001858BF002840DB59403080000059CC
:101090001D4063689C46042367463B436360632AA4
:1010A0001CD90123019FF6181A00F7408A4002302C
:1010B0001F4210D0236D13432365AB00E3181A00C1
:1010C000FC3250608022920098506368FD3AFF3AEB
:1010D00093436360F7BD236D9343EDE7002319004D
:1010E00001F0A8FB6422002301F0B8FAE5E7F7B5A8
:1010F000040045481500066A08AA012012780193E9
:10110000072E1CD88B040F009B0F022B18D1F02246
:10111000019B92009B01134032006032D2000B43CE
:10112000A21853600122384900204B6A9A403300CC
:101130006033DB001A51099B1E6001360E62FEBD52
:101140000921D940014205D0019B9901F0239B0060
:1011500019400F4301239A4219D12368100013420A
:10116000EDD129498A6A072AE9D89300E3181800C3
:10117000ADB2FE3045808020800017431D52330001
:101180006033DB00E31801325F608A62CAE7022A3B
:1011900026D1226818001A42D1D11B49CA6A072AEF
:1011A000CDD83B00102713431F439300E3181800CA
:1011B000FE3040882D042843AC461D00FC35686095
:1011C000802080001D5A60460543802080001D500D
:1011D00033006033DB00E31801325F60CA62A1E7CD
:1011E0001800042AABD122681A42A8D006498A6A9C
:1011F000072AA4D89300E3181800FC30456080202B
:10120000800017431D50BAE77C000010F0B51D00A8
:10121000002387B004930593544B0E001B6A04000F
:10122000023341680292082B02D9012007B0F0BDB9
:101230004909C9B20C98013101F084F9029B012BD4
:1012400008D162680F3313436360690001F07AF9D3
:10125000050006E0029B002BF7D1290001F072F98E
:10126000451EB278632A43D9AB1C0393042780211F
:1012700004AB2A0001934901002320000097FFF7E7
:1012800036FF802105AB0500019320000023039A5F
:1012900000974901FFF72BFF2843C6D10122110017
:1012A000049D6B46A94003911100A7681B7B3B433B
:1012B000A3600D9B17001D60059D3378A9400D00AC
:1012C00071789F408C46DE0091422ED10299284AC7
:1012D000002918D1236DA619BB432365A024E4007F
:1012E000335903990B433351B3582B43B3509DE704
:1012F00000232800190001F09DFA6422002301F068
:10130000ADF90390B2E7216DA61939432165B158B3
:101310005B002943B15003219940626D8A436146C5
:1013200099400B001343636580E7029900290BD1B4
:10133000236DA6193B4323650D4B0399F2581143C6
:10134000A022F150D200CFE7216DA619B943A02702
:101350002165FF00F1595B00294303259D409A4018
:10136000F151616DA9430A4362655FE77C0000109B
:1013700004050000064B10B55C6A0123C022A3409F
:10138000C9004018920081580B43835010BDC046DD
:101390007C000010044A0120536A072B02D81B1856
:1013A000002053627047C0467C000010014B586A11
:1013B0007047C0467C00001070B501249440094E6F
:1013C000CB00C3189D5922002543A0249D51E40061
:1013D0001D5949002A431A5103238B40826D134340
:1013E000836570BD04050000F7B50400204D009230
:1013F000012901D004291CD1A96A0120072917D885
:1014000080278E00A619BF00F25B4C349446020080
:101410009A4013006246884013439BB2F3532388DB
:1014200003439BB22380009B19600131A962002015
:10143000FEBDE96A01200729FAD880278E00A61987
:10144000BF00F25B019202009A401304094A8840EF
:101450001340019A00041343F35123004C331B88BB
:101460001843009BE06419600131E962DFE7C04680
:101470007C00001000F0FF0F014B92009950704764
:101480007C00001010B5024B02481B6B984710BD42
:101490007C00001000400050074A030000209342E7
:1014A00008D0064A0130934204D0054A9818431EDA
:1014B000984102307047C046004006400080064018
:1014C0000040F9BF30B5448C018C0300A5B28AB24C
:1014D000081B8C4202D9DB69D218501B30BDF0B515
:1014E0000B6905000C00012685B0002B02D18E6926
:1014F000731E9E4163680293AB6801936B69019A06
:10150000039380235B001A420AD0AA68676A1343D8
:10151000AB60002F04D021002800A36A3D4AB847E1
:10152000002E24D0019BDB0721D56B461E7B23694F
:10153000002B3DD0E3681E702369013B2361E36803
:101540000133E3602369002B11D1A369002B02D181
:101550000223FF332B61230002222D331A70666AA7
:10156000002E04D021002800A36A2B4AB047029B1A
:10157000002B1BD00422019B134217D023681B7839
:10158000EB616368013B6360236801332360636838
:10159000002B0BD12A6122002C321370666A002EB8
:1015A00004D021002800A36A1C4AB04705B0F0BD52
:1015B000A369002BDBD02000FFF784FFE369013B28
:1015C000984207D1676A002F04D021002800A36A3F
:1015D000134AB8472000FFF775FFE269531E98428F
:1015E00005D1638C013393420CD100236384238C97
:1015F000A269D654238CE2690133934206D10023B9
:101600002384B4E7638C01339BB2EFE7238C01336F
:101610009BB2F5E749160000471600004616000089
:101620004A160000CB6100230B844B840223FF3356
:101630008A61C36070470B002D331B78022B02D1E7
:101640000223FF33036100230B848B61CB614B8446
:101650007047082310B582681A42FCD00124036841
:10166000A3430360FFF718FF0349044A095CD36FE3
:101670008C40A343D36710BD883B00000480044026
:1016800010B50C2204000021043002F005F8962366
:101690009B0123600123E37210BDF0B5036887B09E
:1016A00005000C0001921B0507D5100000F04AFF51
:1016B00001382862002007B0F0BD0A2301270F2659
:1016C000019A7F42534305930B01009303960297BF
:1016D0000099059800F036FFA02305381B039842B7
:1016E00013D20A2100F02EFF731C411C59430490B1
:1016F000019800F027FF231A844200D2031B029AAC
:10170000934202D2049F03960293009B013E1B1B4F
:101710000093072EDCD180235B029F4203D2039B00
:10172000AB622F62C6E70148C5E7C0464F1600000E
:10173000F8B501260D0004001700FFF7ADFE37498C
:10174000CB6F31009C46364B1A5C033391400A0044
:1017500061460A433149185CCA67FFF7F1FA8020F5
:10176000AB79297A2A7B4902DB030B430001910202
:10177000014030200B43697A9203090101400B4379
:10178000A97A1030890101400B43E97A3438890085
:1017900001400B438021C9010A4013436A7B802129
:1017A000824049010A40134329681E4326600029EC
:1017B00006D1EB79002B0BD163681A4A13400BE07A
:1017C0003A002000FFF769FF0028F2D016481FE01A
:1017D000802362685B00134363606B79002B0FD03A
:1017E00001232268134340222360636893436360AC
:1017F0002B79002B08D0012322681343236006E0D5
:10180000402362681343F2E763685B0601D400205B
:10181000F8BD012223689343F0E7C04604800440EA
:10182000883B0000FFFEFFFF4F160000042310B5A9
:101830008A18914205D1082382681A42FCD0002000
:1018400010BD84681C42FCD00C780131C461F0E703
:10185000F7B58B1801938023802680279B01040015
:1018600001259C467600FF01019B994201D1002091
:10187000FEBDA3682B42FCD0A268A3681343A360FB
:10188000324212D110003840431E9841094B404269
:10189000184063461A4200D00748120407D40028B3
:1018A000E6D163690B700131DEE70448E0E70448E4
:1018B000DEE7C0464D1600004C1600004E16000034
:1018C0004B160000F8B50C001E001700FFF7E4FDF2
:1018D000302205000021200001F0DEFE230002225C
:1018E0002D331A700022013B1A700A4BAA00D45003
:1018F000094A6762DA60094BA6625B57002B06DB78
:101900001F2213401E3A9A401300054A136000201C
:10191000F8BDC046B0000010DF1400008E3B000090
:1019200000E100E00B0010B52C331C78012C0ED028
:10193000146852680C608A604A6001221A7004239D
:10194000C36043683F3293434360002010BD0148A9
:10195000FCE7C046441600000423036142683C33A0
:101960001343436000234B602C310B7070470B0016
:101970002C331B780620002B04D048688B681B1A78
:10198000002013607047F7B517000A0001932D324D
:10199000137806000C00032B53D08B697D68002B55
:1019A00044D0012303610800FFF78CFD009000285C
:1019B00008D0A84200D90095009BED1A0023009A98
:1019C00093420DD1002D1ED10123656AF360002DD5
:1019D00026D1019B002B01D0009A1A600020FEBD89
:1019E000608CA269591C125C3868C254638CE0692F
:1019F0000133834203D1002363840B00DFE7638C50
:101A000001339BB2F8E73B68009A9B18E3607B6860
:101A10002561636103232D342370023BF360D8E713
:101A200021003000A36A084AA847D2E739686561F7
:101A3000E1600321256111700222FF32C260009330
:101A4000C7E70248CBE7C04647160000451600002E
:101A50008B69002B02D10223FF33036100230B614A
:101A60002D3102330B7070470B002D331B7806208D
:101A7000022B04D008694B691B1A002013607047C1
:101A800010B5034B0348DA681968904710BDC0468B
:101A9000B00000100040064010B5034B0348DA6860
:101AA0005968904710BDC046B00000100080064045
:101AB00010B5034B0348DA689968904710BDC046DB
:101AC000B000001000C006407FB50C00050068465D
:101AD000FFF7D6FD63686E460093237A022B02D08F
:101AE000032B00D000237372637A3100013B5A420A
:101AF0005341B372A37A5A1E93413371E37A5A1E4B
:101B000093417371A07B074B80002268C058FFF798
:101B10000FFE002803D1A37B2B7004B070BD0248D8
:101B2000FBE7C046943B0000AF2F000010B50278E1
:101B3000034B9200D058FFF78CFD002010BDC0462B
:101B4000943B00000078064B8000C05810B5FFF7AA
:101B50007FFE431E9841034B4042184010BDC046D3
:101B6000943B0000AF2F000010B50078034B8000BD
:101B7000C058FFF75BFE002010BDC046943B00003C
:101B80000020704700207047F7B516000022027051
:101B90000F680500974203D1302343700120FEBD3A
:101BA0006122002B00D0203A01240A3A0192380029
:101BB000310000F04DFD019B3A005B180700092938
:101BC00001D80B0030332B55631C964201D92000FD
:101BD000E5E71C00EBE770B5060001200C0086B0BD
:101BE000824213D102940024094D0193094B01A9AB
:101BF0002874280003938C818E73CC730C74FFF7C8
:101C000063FF2000044BAB60044BEB6006B070BD7B
:101C1000C000001000000101691B0000451B00000E
:101C200010B5054C237C002B04D02000FFF77EFF6D
:101C300000232374002010BDC000001007B50190E0
:101C40000648037C002B05D00122836801A9984730
:101C500001200EBD01204042FBE7C046C00000103D
:101C6000F0B5724B93B002901B7C0C00002B00D19E
:101C7000CAE000252E0008950395029B18780028DD
:101C800000D1C3E0252830D0013302930135FFF79E
:101C9000D5FFF2E70A21019A02934A43303A8218AB
:101CA0000192029A029B507801330200303A092ACD
:101CB000F0D92E2806D10293587801330200303A29
:101CC000092AF8D978280CD8632811D870D00300D5
:101CD000463BDBB21C2B04D8554A1A4101231A4259
:101CE00022D0FFF7ABFF01353AE000230193D8E79C
:101CF00003000122643BDBB29A4013004D4A1342B9
:101D000000D086E0732855D001221342E9D008CCD8
:101D10000A220793012309AF07A93800FFF734FF10
:101D20003B180600039309E0582800D178E070289A
:101D300026D019D8622819D06F2817D03700019BF8
:101D4000BB4223DC0199F20FDB17B1425341002261
:101D5000DBB2934200D08A1B039B5519002B25D17F
:101D6000029B0233029388E77528E7D108CC0A2248
:101D70000893702807D8083A622804D0063202E097
:101D8000102208CC0893012309AF4DE02020FFF773
:101D900055FF0137D3E7013FFFF750FF38780028A0
:101DA000F9D1039B03975D19ED1BD9E7039FF5E775
:101DB00001CC96E708CC0493002BD1D0180000F09A
:101DC00097FC060007000590019BBB4217DC059BB2
:101DD000019A01990598D217DB0F814253410022E5
:101DE000DBB2934200D00A1A55192F00049BDB1B6B
:101DF000585D0028B4D0FFF721FF0135F6E7202019
:101E0000FFF71CFF0137DFE701256D42280013B003
:101E1000F0BD692800D17AE7782800D087E7002351
:101E200004CC09AF0892102208A976E7C000001080
:101E3000FEFFFBEF241812000FB407B504A901C977
:101E40000191FFF70DFF03B008BC04B0184713B5AC
:101E50000848037C002B02D10120404216BD6B468E
:101E6000DC1D01222100C36898470028F4D12078A6
:101E7000F4E7C046C00000100FB430B5154B89B070
:101E80001B7C002B22D000240DAB019302AD2C70E3
:101E9000FFF7DDFFC0B228550D2801D00A2805D173
:101EA000002CF4D000232C19637004E00134142CAE
:101EB000EED100232B752800019A0C9900F034F91B
:101EC000C0B209B030BC08BC04B018470120404281
:101ED000F7E7C046C000001003000120202B05D00A
:101EE00000200422093BDBB29A424041704770B5A2
:101EF0000025036804001878FFF7EEFF012801D0E1
:101F0000280070BD236801355A1C22605878F3E719
:101F1000F0B51F00002305000C008FB00092049361
:101F20002A78002A00D1F7E0252A33D0012300982F
:101F300004A90135B847F3E70A201D000199414380
:101F40003039521801926A786B1C11003039092916
:101F5000F2D92E2A05D11D005A780133303A092AC8
:101F6000F9D92B005A780421130002958B430135CF
:101F7000682BF6D0642A10D0692A0ED020231100D5
:101F80009943462936D1072307349C430834029DE0
:101F90000235C5E700230193D5E70023256804AA8D
:101FA000012613719D420FD1303353713300019AD2
:101FB00005ADED18D31A2022009804A9B8472A7855
:101FC000002A14D10434E2E70A212800039500F026
:101FD000B9FA0A210500039800F03AFB039A05AB11
:101FE0003031995533000136092AEDD8DFE7012356
:101FF000013DE1E7582917D10023216804A80371A6
:10200000994231D1302304AA53712F3B019A05AD77
:10201000ED18D31A2022009804A9B8472A78002A7C
:10202000D0D00123013DF6E711006239C9B213296E
:1020300070D83B480123C84018422DD1632A63D091
:10204000732A67D12568002DBCD0280000F050FB12
:102050002022019B1B1A009804A9B8472A78002A5D
:10206000B0D001230135F6E76120782A00D020386E
:102070000F22012394460A3805AE0A0065462A401D
:1020800009098518092A01D8303215009D555A1CB6
:102090000029BBD01300F0E72368702A05D11E0089
:1020A0000E21204A525C039204E00A221E00039291
:1020B0000E29F6D9002204A901250A71934211D1F3
:1020C00030234B712022019B05AE76195B1B0098D3
:1020D00004A9B8473278002A00D173E70123013EF2
:1020E000F5E71D003000039900F0B2FA0B00320052
:1020F00037330600092900D8073B05A94B5503993A
:102100006B1C8A42EDD2DDE704CCD2B2009804A960
:10211000B8473CE70123F9E704980FB0F0BDC0468B
:1021200001600800A03B0000F0B503788DB0039279
:1021300006910790002B00D138E10023019307E0BE
:1021400006A8FFF7D4FE051E0CD007A8FFF7CFFEA8
:10215000069B1B78002B0DD0079B1C780493002C4A
:10216000EED107E0069B19785A785F1C252904D028
:1021700094422BD001980DB0F0BD252AF8D06323EE
:1021800004000697029300903E78002E06D07C2330
:10219000234005937C231C421ED000260697012E67
:1021A000E8D07C272740042F6DD100230120039A1B
:1021B00002CA029CA54260D1002B02D0049B5B198D
:1021C0000793019B039201330193C1E7049A023301
:1021D000013207920693BBE7692E3FD012D8632ED7
:1021E00040D00BD8392E03D82F2E19D80126D5E789
:1021F000582EFBD120231C43103B2DE0642EF5D13B
:102200006C4C24E030006F38C3B2092BEED809289B
:10221000ECD800F083F91EEBEBEB2EEB1AEBEBEFB7
:1022200001F00CFB059B0A22036009A9380001F0AC
:102230008DF8060001F002FB0368002B00D1059623
:10224000099F059B013F029315E020231C430A23AD
:1022500002E020231C43183B00930CE020231C4386
:10226000059BF9E704231C43029B632B03D1012345
:10227000E9E708231C43013786E7049B5B5D4B5568
:102280000300013595E7082F2BD1002607A8FFF79B
:102290002EFE039F029B10CF079DE3180293029B23
:1022A00003959C420ED1002E00D007950023237089
:1022B000019B0397013301934AE7009B012623709A
:1022C0000134ECE72B780093002BECD00098FFF75B
:1022D00003FE01350028F0D0002EE7D0039B0793C2
:1022E000E4E7202F00D045E707A8FFF700FE079D91
:1022F000009A2B78002A0CD10A320092302B08D198
:102300006B780632BB43582B00D0083A0026009267
:1023100003E02B2B04D02D2B31D00123049301E0BB
:1023200001260496AD192800079500F0E1F9029BFB
:1023300009AF9E1B864227D200260B2229003800B7
:1023400001F0B2FAFE7201F079FA009A066008A96B
:10235000380000F0FBFF060001F070FA0368002B64
:1023600000D007E7089BDB1BEB180793049B039A3D
:102370005E4308CA03921E60019B0133DEE601231F
:102380005B4201260493CDE701F058FA002339009F
:102390000360009A280000F0D9FF060001F04EFA11
:1023A0000368002B00D0E5E6099BDEE701204042F0
:1023B000E1E6C0462020000072B607488047074982
:1023C000074A084B9B1A03DD043BC858D050FBDC7E
:1023D00062B60548804700008F060000A03D00005F
:1023E00000000010640000100D03000025480047A5
:1023F000254800472548004725480047254800470D
:1024000025480047254800472548004725480047FC
:1024100025480047254800472548004725480047EC
:1024200025480047254800472548004725480047DC
:1024300025480047254800472548004725480047CC
:1024400025480047254800472548004725480047BC
:1024500025480047254800472548004725480047AC
:10246000254800472548004725480047254800479C
:10247000254800472548004725480047254800478C
:1024800025480047ED230000F1230000F52300005C
:10249000F9230000FD23000001240000ED230000CB
:1024A000ED230000ED230000811A0000991A0000BE
:1024B000B11A0000ED230000ED230000ED23000021
:1024C00085140000ED230000ED230000ED23000043
:1024D000ED230000ED230000ED230000ED230000BC
:1024E000ED230000ED230000ED230000ED230000AC
:1024F000ED230000ED230000ED230000ED2300009C
:10250000ED230000ED230000ED230000ED2300008B
:10251000ED230000ED230000ED23000002B471461E
:1025200049084900095649008E4402BC7047C0461C
:1025300002B4714649084900095C49008E4402BC56
:102540007047C046002243088B4274D303098B4274
:102550005FD3030A8B4244D3030B8B4228D3030C73
:102560008B420DD3FF22090212BA030C8B4202D315
:102570001212090265D0030B8B4219D300E0090A3D
:10258000C30B8B4201D3CB03C01A5241830B8B4246
:1025900001D38B03C01A5241430B8B4201D34B032F
:1025A000C01A5241030B8B4201D30B03C01A524194
:1025B000C30A8B4201D3CB02C01A5241830A8B4219
:1025C00001D38B02C01A5241430A8B4201D34B0202
:1025D000C01A5241030A8B4201D30B02C01A524166
:1025E000CDD2C3098B4201D3CB01C01A524183091A
:1025F0008B4201D38B01C01A524143098B4201D354
:102600004B01C01A524103098B4201D30B01C01A7E
:102610005241C3088B4201D3CB00C01A52418308F8
:102620008B4201D38B00C01A524143088B4201D325
:102630004B00C01A5241411A00D201465241104685
:102640007047FFE701B5002000F006F802BDC04664
:102650000029F7D076E770477047C046002B11D1AC
:10266000002A0FD1002900D1002802D00021C9433F
:10267000080007B4024802A14018029003BDC046FA
:10268000D9FFFFFF03B4684601B5029800F000F9D6
:10269000019B9E4602B00CBC7047C0461C21012322
:1026A0001B04984201D3000C10391B0A984201D335
:1026B000000A08391B09984201D30009043902A213
:1026C000105C40187047C04604030202010101017A
:1026D000000000000000000010B5002903D1FFF742
:1026E000DDFF203002E00800FFF7D8FF10BDC04634
:1026F0000023C25C0133002AFBD1581E7047000042
:102700000448054B10B5834203D0044B002B00D086
:10271000984710BD64000010640000100000000025
:1027200006480749091A8B10C90FC91810B5491076
:1027300003D0044B002B00D0984710BD640000105C
:10274000640000100000000010B5074C2378002B37
:1027500009D1FFF7D5FF054B002B02D0044800E05C
:1027600000BF0123237010BDD40000100000000042
:10277000743D0000054B10B5002B03D004490548FB
:1027800000E000BFFFF7CCFF10BDC0460000000016
:10279000D8000010743D000030B51E4D8DB008AC5F
:1027A0002C60FDF7FFFEFDF7D1FEFDF7B3FE1A48E2
:1027B000FFF742FBFDF76AFEFDF70EFE2000FDF776
:1027C00033FE0123154A516E0B4353668022144B8E
:1027D00052021A60134C1448FFF72EFB05A8FEF7AF
:1027E00035FC05A92000FEF7CDFB822303A95B0081
:1027F0000B806B6800228B7004AB01930B4B2000A5
:1028000000930B4BFEF702FD042263689343636061
:10281000FEE7C046640000101D3C000000C00140FF
:1028200000E100E000400050363C000080C3C901D8
:1028300010270000F0B5CE469946030C9C461304C1
:1028400047461B0C1D000E0061460404240C80B595
:102850000700100C4B436543414360432C0CC018E8
:1028600024188C46A34203D980235B029846C444B3
:10287000494679435643230C2D042D0C8919634492
:1028800024046019C918C0BCB946B046F0BDC046A2
:10289000F0B557464E464546DE46E0B504000D000D
:1028A0009246994683B08B4230D82DD04946504647
:1028B000FFF712FF290006002000FFF70DFF331A73
:1028C0009846203B34D49B4653465A469340424652
:1028D0001F00534693401E00AF423BD8AF4200D189
:1028E00079E05B46A41BBD41002B00DA76E00022B4
:1028F00000230092019301235A4693400193012340
:1029000042469340009329E08242CFD9002200231F
:10291000009201930C9B002B01D01C605D6000981D
:10292000019903B0F0BCBB46B246A946A046F0BD33
:1029300042469B4620239B1A5246DA4041461300EA
:102940004A468A40170042461F43534693401E00A2
:10295000AF42C3D900220023009201934346002BCB
:10296000D8D0FB0772081A4346467B080EE0AB42FC
:1029700001D1A2420CD8A41A9D41012024196D4115
:102980000021013E24184D41002E06D0AB42EED965
:10299000013E24196D41002EF8D1009801995B4643
:1029A00000196941002B24DB2B005A464646D340D0
:1029B0002A001C00F2405B461500002B2ADB260093
:1029C0009E40330026004746BE403200801A99419F
:1029D000009001919EE7A342BCD882E742462023A3
:1029E00000219B1A0022009101920122DA400192FB
:1029F00085E7424620239B1A2A0046469A40230038
:102A0000F340464613432A001C00F2405B46150083
:102A1000002BD4DA202342462F009B1B9740260030
:102A2000DE403B003343CDE7F0B557464E464546C2
:102A3000DE46E0B51F000B031B0B16009846CA0FBD
:102A40004B000400924685B05B0D00D1C2E1CC4A38
:102A5000934200D128E14146420FC9000A43802138
:102A600009041143C2009146C64A884693469B44D6
:102A70000023002501933C037A00FB0F3000240B58
:102A8000520D009300D185E1BD4B9A4200D160E127
:102A9000BC4B9C46624493440A2D00DD14E1730F45
:102AA000E4001C4380231B042343F000524600999A
:102AB00000264A409246022D11DD0122AA40A6219D
:102AC0001400C9000C400A4200D0FDE090218900AA
:102AD0000A4200D0D4E18821114200D0EFE04946FB
:102AE0004A460904140C090C020C0F0015000004DE
:102AF000000C654347430195B9462F000D000600C1
:102B00005543AC464D4666432D0CB4446544AE4235
:102B100005D93E0080277F02BC46664401964F4699
:102B20003F043F0C2E0C2D04ED1902951D0C1B04C7
:102B30001B0C00951D001F0065434F43AC46009DD4
:102B400069436C433D0CA946614449448C4503D913
:102B500080256D02AC4664443F040D0C3F0C090413
:102B6000C919AC467518039545462E04360C2F0C32
:102B7000350045437843804638006444AC462D0C0C
:102B8000A9465043724342444A44904503D98025A4
:102B90006D02A8464044150CA84665462D042D0C30
:102BA000AC4635005D4312046244AC467B43009D55
:102BB000404498462B006E4365467B4346442D0CAB
:102BC000AD191F000093A84504D980235B029846E5
:102BD00047440097039B019E98462B044644984621
:102BE00063468E4289411B041B0C4344B61849427C
:102BF0001B195F1896429241BC465242804691464C
:102C00008C458941A3429B41E044C14449425B4217
:102C1000914592410B43804589412D0C49425242D6
:102C20000A435B199B18009A029994464A466344EA
:102C30005B02D20D1A43904672020A43511E8A412A
:102C4000F60D16434A4652021643B146DB0154D4F0
:102C50004D4A5A44002A00DC18E133005B0715D0C6
:102C60000F215B463140042910D04946081D4845D4
:102C700089418146494288444146C90106D54146B9
:102C8000424A114080228846D2009A18404B9A420C
:102C900000DD2BE141464B464C07DB081C43520547
:102CA0004B021B0B520D1AE042460243914600D0E4
:102CB000E0E09B460223904608250193DBE6009A5C
:102CC0009846924681460196019B022B00D10DE168
:102CD000032B35D0012B1BD1002200230024120529
:102CE0001A435346DB071A432000110005B0F0BC1D
:102CF000BB46B246A946A046F0BD01227308324049
:102D000013434246D2071343994643465B0898460D
:102D100080225B46D2005A440133002A00DCB6E030
:102D200049464907A8D00F214846014004299CD1B3
:102D3000A2E70F2D00D1FDE0009BA0469A46B146C8
:102D4000802342461B0313431B034C460C4A1B0BB8
:102D5000C5E70B4933008C462343E344002B77D16E
:102D6000022129430A29AFDC5046009C604082467C
:102D7000002D00D10EE10D00002002269DE6C04688
:102D8000FF07000001FCFFFFFF030000FFFFFFFE45
:102D9000FE070000230033434BD0002C00D1BBE0E2
:102DA0002000FFF77BFC030002000B3B1D20C31A31
:102DB0003000D84011000300300008398C408840B2
:102DC000234359468A1A78498B4693440A2D00DCDE
:102DD0006CE679E743460343994623D04346002BEC
:102DE00000D187E04046FFF759FC0B235B429C462D
:102DF0000200844411004046083988401D23804663
:102E000060461B1A2000D840030040460343984602
:102E100023008B409946644B00259B1A9B46002358
:102E2000019328E6002398469B460133042501932D
:102E300021E6012215430A2D00DD45E7524600999F
:102E40004A409246022D00DC46E70020012634E687
:102E500003231D430A2D00DD6BE75346009A8821AA
:102E600053400122AA409A4603262300114200D172
:102E700035E624E79B46032381460C250193FAE5BA
:102E800000239A468023494A1B0328E75B46012119
:102E9000891A382900DD1FE71F295ADD1F2040420B
:102EA000821A4046D040202908D0414A94464246E2
:102EB00063449A4013004A461A4391464A46072102
:102EC000531E9A410C00024300231440114209D0C2
:102ED00008311140042960D0111D9142A4410A001B
:102EE00064426407D20814430022F8E60023002459
:102EF0002E4AF4E6FFF7D2FB15239C4684440200D9
:102F0000634620321C2B00DC74E700239946230023
:102F10000838834098467EE7FFF7C0FB03000200B5
:102F2000153320321C2B00DC40E733000838834087
:102F3000002046E7802342461B031A4200D1FFE6E9
:102F40001C4200D0FCE6009A234392463400174A04
:102F5000C5E6184A404694464A4663449840CA40EB
:102F600010434A469A40531E9A4143460243CB407F
:102F7000510709D00F211140042905D0111D91429C
:102F8000924152429B180A00190208D501220023DF
:102F90000024A4E600230024A1E60024A2E75C07A5
:102FA0005B021B0B9EE7C0460DFCFFFFFF07000006
:102FB0003E0400001E0400000B00020070B5164D18
:102FC0000C0382B04900002000920193240B490DAC
:102FD000DE0FA94204DD1148814203DD104BF018D9
:102FE00002B070BD8020400320430E4C641A1F2C99
:102FF00008DD0D4B5B1AD84003005842002EEFD17C
:103000001800EDE7094B009A9C46030061448B4091
:10301000E2401343F1E7C046FE0300001D04000038
:10302000FFFFFF7F3304000013040000EDFBFFFFF0
:1030300010B5041E10D0FFF731FB0E4B1B1A5B05B9
:103040005B0D0A280FDC0B222100121AD14015302B
:103050000A038440120B01E0002300221B051343E6
:103060002000190010BD22000B38824012030024FA
:10307000120BF3E71E040000074B10B50400002BF1
:1030800002D0002100E000BF044B1B68002B00D0E1
:103090009847200000F058FD0000000030020010AA
:1030A00010B5034B0100186800F030F810BDC046A1
:1030B0001400001010B5034B0100186800F0FEFB6F
:1030C00010BDC0461400001070B50F4E0D003168E1
:1030D0000400002902D100F08BFB306029002000A1
:1030E00000F086FB431C03D101256D42280070BD12
:1030F0000323C51C9D43A842F8D0291A200000F0E4
:1031000077FB0130F2D1EFE7F0000010F7B50322B2
:10311000CB1C9343083305001F000C2B34D20C2723
:10312000B94233D8280000F071F8374E33681C00DC
:10313000002C2FD139002800FFF7C6FF0400431CE4
:103140005FD134680094009B002B4AD1002C52D0F0
:1031500023682800E3180099019300F049FB019BC4
:10316000834248D123682800FF1A3900FFF7ACFFDB
:10317000013040D02368DB19236033685A68002A85
:1031800033D1009B336019E0002BC9DA0C232B608C
:103190000020FEBD2168C91B20D40B290AD9E219E1
:1031A0002760A34204D1326063681160536005E078
:1031B0005A60F9E76268A3420ED13260280000F03D
:1031C0002DF8200007220B30231D9043C21A98428D
:1031D000DFD01B1AA350DCE75A60EFE723006468D6
:1031E000A6E7009C63680093ADE71A005B68A34202
:1031F000FBD10023DAE70C2328002B6000F00EF847
:10320000C6E70760DAE7C046F400001010B50248D0
:1032100000F043FB10BDC0463C02001010B5024850
:1032200000F041FB10BDC0463C020010F0B51E008E
:103230003D4B17000C009C46082285B0039000917E
:10324000230061461D780134485D010011401042A1
:10325000F6D12D2D12D125789C1C0123029310222A
:103260003300934316D1302D0ED1202123788B4388
:10327000582B09D16578023410260BE002912B2DD2
:10328000EDD125789C1CEAE7002EF5D10A36302DC9
:1032900000D1023E012031004042FFF753F9019076
:1032A000012031004042FFF7D3F9002318002A0023
:1032B000303A092A12D81500AE421EDD5A1C0AD037
:1032C0000123019A5B42824205D301D1A94211DB5D
:1032D00001237043281825780134E8E72A00413A91
:1032E000192A01D8373DE7E72A00613A192A04D89C
:1032F000573DE1E701235B42EDE75A1C07D122224B
:10330000039918000A60002F09D105B0F0BD029A98
:10331000002A00D04042002FF7D0002B01D0631EBE
:103320000093009B3B60F0E74E3C000010B5FFF7B8
:103330007DFF10BD10B5044C13000A000100206889
:10334000FFF774FF10BDC0461400001010B5044C08
:1033500013000A0001002068FFF768FF10BDC04697
:1033600014000010002310B5040003604360836064
:1033700081814366C2810361436183611900082230
:103380005C3000F089F90B4B246263620A4BA36244
:103390000A4BE3620A4B23630A4B9C4205D00A4B5B
:1033A0009C4202D0094B9C4203D12000583000F0CF
:1033B00070FA10BDFD3500002936000061360000AE
:1033C0008D360000F800001060010010C8010010E8
:1033D00010B5034A0349044800F0F4F810BDC04694
:1033E00008000010653A00001800001041680B4BFF
:1033F00010B50400994201D000F034FBA168084BDD
:10340000994202D0200000F02DFBE168054B994263
:1034100002D0200000F026FB10BDC046F8000010CE
:1034200060010010C80100104B6E10B5DB0705D419
:103430008B899B0502D4886D00F02FFA002010BD07
:103440004B6E10B5DB0705D48B899B0502D4886DC4
:1034500000F029FA002010BD10B5094B094A0421DB
:103460001A6009480022FFF77DFF01220921074861
:10347000FFF778FF022212210548FFF773FF10BD06
:1034800030020010D1330000F8000010600100107D
:10349000C801001010B5024800F0FFF910BDC04689
:1034A0003F02001010B5024800F0FDF910BDC04603
:1034B0003F020010F8B50700FFF7ECFF244B1B6834
:1034C000002B01D1FFF7C8FF224EB4687368013B9F
:1034D0000FD53568002D39D1D62138004900FFF7C6
:1034E00015FE041E26D13060FFF7DCFF0C233B6085
:1034F0001CE00C22A55E002D1AD12000164B58307E
:10350000E360656600F0C5F9FFF7CCFF20000822F4
:1035100029002560A560656025616561A5615C3055
:1035200000F0BAF86563A563A564E5642000F8BD02
:103530006834CCE70423D0220560290025004360CD
:103540000C30A060520000F0A7F834602E00BCE7F9
:1035500030020010080000100100FFFF10B5040049
:10356000FFF798FF236A002B02D0FFF79BFF10BDE7
:10357000044B2362044B1B68002BF6D1FFF76CFF52
:10358000F3E7C046ED3300003002001010B5FFF73E
:1035900081FF0020024A034900F014F810BDC04624
:1035A000080000102934000010B5044A0449002026
:1035B00000F008F8FFF776FF10BDC04608000010C5
:1035C00041340000F7B51400002600900191A56871
:1035D0006768013F04D52468002CF8D13000FEBD97
:1035E000AB89012B08D90E22AB5E013304D0290030
:1035F0000098019B984706436835EAE770B50C00D0
:103600000E25495F00F0E0F8002803DB636D1B180E
:10361000636570BDA389024A1340A381F9E7C046E0
:10362000FFEFFFFF00207047F8B51F008B890500F2
:103630000C001600DB0505D50E23C95E002202230F
:1036400000F0AEF8A389054A28001340A381320098
:103650000E23E15E3B0000F0DDF8F8BDFFEFFFFF59
:1036600070B50C000E25495F00F09AF80C22A35E9D
:10367000421C03D1044A1340A38170BD8022520131
:103680001343A3816065F8E7FFEFFFFF10B50E233A
:10369000C95E00F009F810BD03008218934200D102
:1036A000704719700133F9E7002370B5064D040027
:1036B00008002B6000F01AFA431C03D12B68002B82
:1036C00000D0236070BDC04634020010334B70B58B
:1036D0001B68040083425FD0C369002B27D0DB68DE
:1036E000002B0DD00025E369DB685959002918D15A
:1036F0000435802DF7D1E3692000D96800F0DEF8A9
:10370000E3691968002902D0200000F0D7F8E369C6
:103710009D68002D0BD0290020002D6800F0CEF808
:10372000F7E70E68200000F0C9F83100DEE76169B4
:10373000002902D0200000F0C1F8E169002902D080
:10374000200000F0BBF8216B002902D0200000F01F
:10375000B5F8616B002902D0200000F0AFF8A16B32
:10376000002902D0200000F0A9F8A16C002902D0A5
:10377000200000F0A3F8616C002902D0200000F0C6
:103780009DF8E16A002902D0200000F097F8236A32
:10379000002B01D02000984770BDC04614000010D7
:1037A00070B50400080011001A000023054D2B60BD
:1037B00000F0A4F9431C03D12B68002B00D0236038
:1037C00070BDC0463402001070B50400080011003E
:1037D0001A000023054D2B6000F098F9431C03D11B
:1037E0002B68002B00D0236070BDC046340200104F
:1037F000002370B5064D040008002B6000F08EF920
:10380000431C03D12B68002B00D0236070BDC04641
:103810003402001070B50400080011001A000023E3
:10382000054D2B6000F088F9431C03D12B68002B59
:1038300000D0236070BDC04634020010014B1868F0
:103840007047C0461400001070B500260C4C0D4D9A
:10385000641BA410A64209D1002600F08DFA0A4C80
:103860000A4D641BA410A64205D170BDB300EB58ED
:1038700098470136EEE7B300EB5898470136F2E778
:10388000983D0000983D00009C3D0000983D0000E0
:103890007047704770477047704770470120704706
:1038A0000120704770477047002310B59A4200D13D
:1038B00010BDCC5CC4540133F8E7000070B50500BE
:1038C0000C1E10D0043C2368002B00DAE4182800FA
:1038D000FFF79CFC1D4A1368002B05D16360146040
:1038E0002800FFF79BFC70BDA34208D9206821186F
:1038F0008B42F3D119685B6809182160EEE71A0062
:103900005B68002B01D0A342F9D911685018A0427E
:103910000BD120680918501811608342E0D1186853
:103920005B68411811605360DAE7A04202D90C23AA
:103930002B60D5E7206821188B4203D119685B689A
:103940000918216063605460CAE7C046F4000010A3
:10395000F7B50C228B5E05000C001A075AD44A6892
:10396000002A02DC0A6C002A4FDDE76A002F4CD0E7
:10397000002280212E682A601A0049010A400B4269
:1039800034D0626DA3895B0706D56368D21A636B76
:10399000002B01D0236CD21A00232800E76A216A89
:1039A000B8470C23E25E431C06D129681D292ED896
:1039B0002B4BCB40DB072AD50023636023692360B0
:1039C000D20405D5431C02D12B68002B00D16065C1
:1039D000616B2E60002918D023004433994202D035
:1039E0002800FFF76BFF002363630EE0012328002C
:1039F000216AB8470200431CC4D12B68002BC1D0F8
:103A00001D2B01D0162B1DD12E60002021E040235C
:103A100013431BE00E69002EF7D00F680E60BA1B2F
:103A2000019200229B0700D14A69A260019B002BF2
:103A3000EBDDA36A32001F002800019B216AB84712
:103A4000002807DC4023A28913431BB20120A38175
:103A50004042FEBD019B36181B1A0193E6E7C046A3
:103A6000010040200B6970B505000C00002B02D14D
:103A70000025280070BD002804D0036A002B01D166
:103A8000FFF76CFD0C22A35E002BF1D0626ED20713
:103A900004D49B0502D4A06DFFF7FFFE280021008F
:103AA000FFF756FF636E0500DB07E2D4A3899B0591
:103AB000DFD4A06DFFF7F7FEDBE70000010010B5D3
:103AC000002805D1054A06490648FFF77BFD10BDD1
:103AD000054B1868FFF7C6FFF9E7C046080000105D
:103AE000653A000018000010140000105822012050
:103AF000014B40421A6070473402001058220120E6
:103B0000014B40421A6070473402001058220120D5
:103B1000014B40421A60704734020010044A03000F
:103B20001068002802D0C318136070470148FAE7F4
:103B3000400200104802001058220120014B404270
:103B40001A60704734020010FEE7C046C027090023
:103B500090051000C05C1500F0B31A00200B200087
:103B6000009F2400E0322900C0C62D00509731008C
:103B7000E06735007038390000093D00401640000C
:103B800080234300C03046000E0F100304050304D9
:103B900005000000004006400080064000C00640CE
:103BA000020A0A0A0A0A0A0A0A0A0A0A0A08100083
:103BB0003E410C4111412741364103410641154127
:103BC0000F410E41264113412941024119410A4149
:103BD0000B410000436820256420726573756C7486
:103BE000203D202564202020200D00414443204317
:103BF000616C6962726174696F6E20446F6E652ECC
:103C00000D0A004144432043616C6962726174692A
:103C10006F6E204661696C65642E0D0A0041444355
:103C200020696E74657272757074206578616D704C
:103C30006C652E0D0A00436F6E666967757261745C
:103C4000696F6E20446F6E652E0D0A0A00002020F9
:103C5000202020202020202828282828202020203C
:103C600020202020202020202020202020208810FC
:103C7000101010101010101010101010101004045C
:103C80000404040404040404101010101010104163
:103C900041414141410101010101010101010101D4
:103CA0000101010101010101011010101010104269
:103CB00042424242420202020202020202020202A4
:103CC0000202020202020202021010101020000082
:103CD00000000000000000000000000000000000E4
:103CE00000000000000000000000000000000000D4
:103CF00000000000000000000000000000000000C4
:103D000000000000000000000000000000000000B3
:103D100000000000000000000000000000000000A3
:103D20000000000000000000000000000000000093
:103D30000000000000000000000000000000000083
:103D40000000000000000000000000000000000073
:103D50003E410C4111412741364103410641154185
:103D60000F410E41264113412941024119410A41A7
:103D70000B41000000000000F8B5C046F8BC08BCCC
:103D80009E467047F8B5C046F8BC08BC9E467047D2
:083D900070C5FF7F0100000077
:043D9800752700008B
:043D9C0049270000B3
:103DA000001BB7000000000000000000030000003E
:103DB000F80000101800001000000000F8000010CB
:103DC00060010010C80100100000000000000000A9
:103DD00000000000000000000000000000000000E3
:103DE00000000000000000000000000000000000D3
:103DF00000000000000000000000000000000000C3
:043E000000000000BE
:04000003000023B91D
:00000001FF
